{
  "contracts/liquidityProvider.sol": {
    "LiquidityExamples": {
      "abi": [
        {
          "inputs": [
            {
              "internalType": "contract INonfungiblePositionManager",
              "name": "_nonfungiblePositionManager",
              "type": "address"
            },
            {
              "internalType": "address",
              "name": "_factory",
              "type": "address"
            },
            {
              "internalType": "address",
              "name": "_WETH9",
              "type": "address"
            }
          ],
          "stateMutability": "nonpayable",
          "type": "constructor"
        },
        {
          "inputs": [],
          "name": "DAI",
          "outputs": [
            {
              "internalType": "address",
              "name": "",
              "type": "address"
            }
          ],
          "stateMutability": "view",
          "type": "function"
        },
        {
          "inputs": [],
          "name": "USDC",
          "outputs": [
            {
              "internalType": "address",
              "name": "",
              "type": "address"
            }
          ],
          "stateMutability": "view",
          "type": "function"
        },
        {
          "inputs": [
            {
              "internalType": "uint256",
              "name": "",
              "type": "uint256"
            }
          ],
          "name": "deposits",
          "outputs": [
            {
              "internalType": "address",
              "name": "owner",
              "type": "address"
            },
            {
              "internalType": "uint128",
              "name": "liquidity",
              "type": "uint128"
            },
            {
              "internalType": "address",
              "name": "token0",
              "type": "address"
            },
            {
              "internalType": "address",
              "name": "token1",
              "type": "address"
            }
          ],
          "stateMutability": "view",
          "type": "function"
        },
        {
          "inputs": [],
          "name": "nonfungiblePositionManager",
          "outputs": [
            {
              "internalType": "contract INonfungiblePositionManager",
              "name": "",
              "type": "address"
            }
          ],
          "stateMutability": "view",
          "type": "function"
        },
        {
          "inputs": [
            {
              "internalType": "address",
              "name": "operator",
              "type": "address"
            },
            {
              "internalType": "address",
              "name": "",
              "type": "address"
            },
            {
              "internalType": "uint256",
              "name": "tokenId",
              "type": "uint256"
            },
            {
              "internalType": "bytes",
              "name": "",
              "type": "bytes"
            }
          ],
          "name": "onERC721Received",
          "outputs": [
            {
              "internalType": "bytes4",
              "name": "",
              "type": "bytes4"
            }
          ],
          "stateMutability": "nonpayable",
          "type": "function"
        },
        {
          "inputs": [],
          "name": "poolFee",
          "outputs": [
            {
              "internalType": "uint24",
              "name": "",
              "type": "uint24"
            }
          ],
          "stateMutability": "view",
          "type": "function"
        }
      ],
      "evm": {
        "bytecode": {
          "linkReferences": {},
          "object": "60a060405234801561001057600080fd5b506040516106d83803806106d883398101604081905261002f91610046565b505060601b6001600160601b0319166080526100aa565b60008060006060848603121561005a578283fd5b835161006581610092565b602085015190935061007681610092565b604085015190925061008781610092565b809150509250925092565b6001600160a01b03811681146100a757600080fd5b50565b60805160601c61060c6100cc6000398061016b52806101ac525061060c6000f3fe608060405234801561001057600080fd5b50600436106100625760003560e01c8063089fe6aa14610067578063150b7a021461008557806389a30271146100a5578063b02c43d0146100ba578063b44a2722146100dd578063e0bab4c4146100e5575b600080fd5b61006f6100ed565b60405161007c91906105a5565b60405180910390f35b6100986100933660046103b7565b6100f3565b60405161007c9190610590565b6100ad610111565b60405161007c9190610548565b6100cd6100c8366004610451565b610129565b60405161007c949392919061055c565b6100ad610169565b6100ad61018d565b610bb881565b60006100ff86856101a5565b50630a85bd0160e11b95945050505050565b73a0b86991c6218b36c1d19d4a2e9eb0ce3606eb4881565b60006020819052908152604090208054600182015460028301546003909301546001600160a01b03928316936001600160801b0390921692918216911684565b7f000000000000000000000000000000000000000000000000000000000000000081565b736b175474e89094c44da98b954eedeac495271d0f81565b60008060007f00000000000000000000000000000000000000000000000000000000000000006001600160a01b03166399fbab88856040518263ffffffff1660e01b81526004016101f691906105b5565b6101806040518083038186803b15801561020f57600080fd5b505afa158015610223573d6000803e3d6000fd5b505050506040513d601f19601f820116820180604052508101906102479190610469565b5050505097505050509450945050506040518060800160405280866001600160a01b03168152602001826001600160801b03168152602001846001600160a01b03168152602001836001600160a01b031681525060008086815260200190815260200160002060008201518160000160006101000a8154816001600160a01b0302191690836001600160a01b0316021790555060208201518160010160006101000a8154816001600160801b0302191690836001600160801b0316021790555060408201518160020160006101000a8154816001600160a01b0302191690836001600160a01b0316021790555060608201518160030160006101000a8154816001600160a01b0302191690836001600160a01b031602179055509050505050505050565b8051610376816105be565b919050565b8051600281900b811461037657600080fd5b80516001600160801b038116811461037657600080fd5b805162ffffff8116811461037657600080fd5b6000806000806000608086880312156103ce578081fd5b85356103d9816105be565b945060208601356103e9816105be565b935060408601359250606086013567ffffffffffffffff8082111561040c578283fd5b818801915088601f83011261041f578283fd5b81358181111561042d578384fd5b89602082850101111561043e578384fd5b9699959850939650602001949392505050565b600060208284031215610462578081fd5b5035919050565b6000806000806000806000806000806000806101808d8f03121561048b578687fd5b8c516bffffffffffffffffffffffff811681146104a6578788fd5b9b506104b460208e0161036b565b9a506104c260408e0161036b565b99506104d060608e0161036b565b98506104de60808e016103a4565b97506104ec60a08e0161037b565b96506104fa60c08e0161037b565b955061050860e08e0161038d565b94506101008d015193506101208d015192506105276101408e0161038d565b91506105366101608e0161038d565b90509295989b509295989b509295989b565b6001600160a01b0391909116815260200190565b6001600160a01b0394851681526001600160801b039390931660208401529083166040830152909116606082015260800190565b6001600160e01b031991909116815260200190565b62ffffff91909116815260200190565b90815260200190565b6001600160a01b03811681146105d357600080fd5b5056fea2646970667358221220669c5afb6cb177bad00dde771eed2690eb838eefaf7ad996d794bcf4505ac5e864736f6c63430007060033",
          "opcodes": "PUSH1 0xA0 PUSH1 0x40 MSTORE CALLVALUE DUP1 ISZERO PUSH2 0x10 JUMPI PUSH1 0x0 DUP1 REVERT JUMPDEST POP PUSH1 0x40 MLOAD PUSH2 0x6D8 CODESIZE SUB DUP1 PUSH2 0x6D8 DUP4 CODECOPY DUP2 ADD PUSH1 0x40 DUP2 SWAP1 MSTORE PUSH2 0x2F SWAP2 PUSH2 0x46 JUMP JUMPDEST POP POP PUSH1 0x60 SHL PUSH1 0x1 PUSH1 0x1 PUSH1 0x60 SHL SUB NOT AND PUSH1 0x80 MSTORE PUSH2 0xAA JUMP JUMPDEST PUSH1 0x0 DUP1 PUSH1 0x0 PUSH1 0x60 DUP5 DUP7 SUB SLT ISZERO PUSH2 0x5A JUMPI DUP3 DUP4 REVERT JUMPDEST DUP4 MLOAD PUSH2 0x65 DUP2 PUSH2 0x92 JUMP JUMPDEST PUSH1 0x20 DUP6 ADD MLOAD SWAP1 SWAP4 POP PUSH2 0x76 DUP2 PUSH2 0x92 JUMP JUMPDEST PUSH1 0x40 DUP6 ADD MLOAD SWAP1 SWAP3 POP PUSH2 0x87 DUP2 PUSH2 0x92 JUMP JUMPDEST DUP1 SWAP2 POP POP SWAP3 POP SWAP3 POP SWAP3 JUMP JUMPDEST PUSH1 0x1 PUSH1 0x1 PUSH1 0xA0 SHL SUB DUP2 AND DUP2 EQ PUSH2 0xA7 JUMPI PUSH1 0x0 DUP1 REVERT JUMPDEST POP JUMP JUMPDEST PUSH1 0x80 MLOAD PUSH1 0x60 SHR PUSH2 0x60C PUSH2 0xCC PUSH1 0x0 CODECOPY DUP1 PUSH2 0x16B MSTORE DUP1 PUSH2 0x1AC MSTORE POP PUSH2 0x60C PUSH1 0x0 RETURN INVALID PUSH1 0x80 PUSH1 0x40 MSTORE CALLVALUE DUP1 ISZERO PUSH2 0x10 JUMPI PUSH1 0x0 DUP1 REVERT JUMPDEST POP PUSH1 0x4 CALLDATASIZE LT PUSH2 0x62 JUMPI PUSH1 0x0 CALLDATALOAD PUSH1 0xE0 SHR DUP1 PUSH4 0x89FE6AA EQ PUSH2 0x67 JUMPI DUP1 PUSH4 0x150B7A02 EQ PUSH2 0x85 JUMPI DUP1 PUSH4 0x89A30271 EQ PUSH2 0xA5 JUMPI DUP1 PUSH4 0xB02C43D0 EQ PUSH2 0xBA JUMPI DUP1 PUSH4 0xB44A2722 EQ PUSH2 0xDD JUMPI DUP1 PUSH4 0xE0BAB4C4 EQ PUSH2 0xE5 JUMPI JUMPDEST PUSH1 0x0 DUP1 REVERT JUMPDEST PUSH2 0x6F PUSH2 0xED JUMP JUMPDEST PUSH1 0x40 MLOAD PUSH2 0x7C SWAP2 SWAP1 PUSH2 0x5A5 JUMP JUMPDEST PUSH1 0x40 MLOAD DUP1 SWAP2 SUB SWAP1 RETURN JUMPDEST PUSH2 0x98 PUSH2 0x93 CALLDATASIZE PUSH1 0x4 PUSH2 0x3B7 JUMP JUMPDEST PUSH2 0xF3 JUMP JUMPDEST PUSH1 0x40 MLOAD PUSH2 0x7C SWAP2 SWAP1 PUSH2 0x590 JUMP JUMPDEST PUSH2 0xAD PUSH2 0x111 JUMP JUMPDEST PUSH1 0x40 MLOAD PUSH2 0x7C SWAP2 SWAP1 PUSH2 0x548 JUMP JUMPDEST PUSH2 0xCD PUSH2 0xC8 CALLDATASIZE PUSH1 0x4 PUSH2 0x451 JUMP JUMPDEST PUSH2 0x129 JUMP JUMPDEST PUSH1 0x40 MLOAD PUSH2 0x7C SWAP5 SWAP4 SWAP3 SWAP2 SWAP1 PUSH2 0x55C JUMP JUMPDEST PUSH2 0xAD PUSH2 0x169 JUMP JUMPDEST PUSH2 0xAD PUSH2 0x18D JUMP JUMPDEST PUSH2 0xBB8 DUP2 JUMP JUMPDEST PUSH1 0x0 PUSH2 0xFF DUP7 DUP6 PUSH2 0x1A5 JUMP JUMPDEST POP PUSH4 0xA85BD01 PUSH1 0xE1 SHL SWAP6 SWAP5 POP POP POP POP POP JUMP JUMPDEST PUSH20 0xA0B86991C6218B36C1D19D4A2E9EB0CE3606EB48 DUP2 JUMP JUMPDEST PUSH1 0x0 PUSH1 0x20 DUP2 SWAP1 MSTORE SWAP1 DUP2 MSTORE PUSH1 0x40 SWAP1 KECCAK256 DUP1 SLOAD PUSH1 0x1 DUP3 ADD SLOAD PUSH1 0x2 DUP4 ADD SLOAD PUSH1 0x3 SWAP1 SWAP4 ADD SLOAD PUSH1 0x1 PUSH1 0x1 PUSH1 0xA0 SHL SUB SWAP3 DUP4 AND SWAP4 PUSH1 0x1 PUSH1 0x1 PUSH1 0x80 SHL SUB SWAP1 SWAP3 AND SWAP3 SWAP2 DUP3 AND SWAP2 AND DUP5 JUMP JUMPDEST PUSH32 0x0 DUP2 JUMP JUMPDEST PUSH20 0x6B175474E89094C44DA98B954EEDEAC495271D0F DUP2 JUMP JUMPDEST PUSH1 0x0 DUP1 PUSH1 0x0 PUSH32 0x0 PUSH1 0x1 PUSH1 0x1 PUSH1 0xA0 SHL SUB AND PUSH4 0x99FBAB88 DUP6 PUSH1 0x40 MLOAD DUP3 PUSH4 0xFFFFFFFF AND PUSH1 0xE0 SHL DUP2 MSTORE PUSH1 0x4 ADD PUSH2 0x1F6 SWAP2 SWAP1 PUSH2 0x5B5 JUMP JUMPDEST PUSH2 0x180 PUSH1 0x40 MLOAD DUP1 DUP4 SUB DUP2 DUP7 DUP1 EXTCODESIZE ISZERO DUP1 ISZERO PUSH2 0x20F JUMPI PUSH1 0x0 DUP1 REVERT JUMPDEST POP GAS STATICCALL ISZERO DUP1 ISZERO PUSH2 0x223 JUMPI RETURNDATASIZE PUSH1 0x0 DUP1 RETURNDATACOPY RETURNDATASIZE PUSH1 0x0 REVERT JUMPDEST POP POP POP POP PUSH1 0x40 MLOAD RETURNDATASIZE PUSH1 0x1F NOT PUSH1 0x1F DUP3 ADD AND DUP3 ADD DUP1 PUSH1 0x40 MSTORE POP DUP2 ADD SWAP1 PUSH2 0x247 SWAP2 SWAP1 PUSH2 0x469 JUMP JUMPDEST POP POP POP POP SWAP8 POP POP POP POP SWAP5 POP SWAP5 POP POP POP PUSH1 0x40 MLOAD DUP1 PUSH1 0x80 ADD PUSH1 0x40 MSTORE DUP1 DUP7 PUSH1 0x1 PUSH1 0x1 PUSH1 0xA0 SHL SUB AND DUP2 MSTORE PUSH1 0x20 ADD DUP3 PUSH1 0x1 PUSH1 0x1 PUSH1 0x80 SHL SUB AND DUP2 MSTORE PUSH1 0x20 ADD DUP5 PUSH1 0x1 PUSH1 0x1 PUSH1 0xA0 SHL SUB AND DUP2 MSTORE PUSH1 0x20 ADD DUP4 PUSH1 0x1 PUSH1 0x1 PUSH1 0xA0 SHL SUB AND DUP2 MSTORE POP PUSH1 0x0 DUP1 DUP7 DUP2 MSTORE PUSH1 0x20 ADD SWAP1 DUP2 MSTORE PUSH1 0x20 ADD PUSH1 0x0 KECCAK256 PUSH1 0x0 DUP3 ADD MLOAD DUP2 PUSH1 0x0 ADD PUSH1 0x0 PUSH2 0x100 EXP DUP2 SLOAD DUP2 PUSH1 0x1 PUSH1 0x1 PUSH1 0xA0 SHL SUB MUL NOT AND SWAP1 DUP4 PUSH1 0x1 PUSH1 0x1 PUSH1 0xA0 SHL SUB AND MUL OR SWAP1 SSTORE POP PUSH1 0x20 DUP3 ADD MLOAD DUP2 PUSH1 0x1 ADD PUSH1 0x0 PUSH2 0x100 EXP DUP2 SLOAD DUP2 PUSH1 0x1 PUSH1 0x1 PUSH1 0x80 SHL SUB MUL NOT AND SWAP1 DUP4 PUSH1 0x1 PUSH1 0x1 PUSH1 0x80 SHL SUB AND MUL OR SWAP1 SSTORE POP PUSH1 0x40 DUP3 ADD MLOAD DUP2 PUSH1 0x2 ADD PUSH1 0x0 PUSH2 0x100 EXP DUP2 SLOAD DUP2 PUSH1 0x1 PUSH1 0x1 PUSH1 0xA0 SHL SUB MUL NOT AND SWAP1 DUP4 PUSH1 0x1 PUSH1 0x1 PUSH1 0xA0 SHL SUB AND MUL OR SWAP1 SSTORE POP PUSH1 0x60 DUP3 ADD MLOAD DUP2 PUSH1 0x3 ADD PUSH1 0x0 PUSH2 0x100 EXP DUP2 SLOAD DUP2 PUSH1 0x1 PUSH1 0x1 PUSH1 0xA0 SHL SUB MUL NOT AND SWAP1 DUP4 PUSH1 0x1 PUSH1 0x1 PUSH1 0xA0 SHL SUB AND MUL OR SWAP1 SSTORE POP SWAP1 POP POP POP POP POP POP POP JUMP JUMPDEST DUP1 MLOAD PUSH2 0x376 DUP2 PUSH2 0x5BE JUMP JUMPDEST SWAP2 SWAP1 POP JUMP JUMPDEST DUP1 MLOAD PUSH1 0x2 DUP2 SWAP1 SIGNEXTEND DUP2 EQ PUSH2 0x376 JUMPI PUSH1 0x0 DUP1 REVERT JUMPDEST DUP1 MLOAD PUSH1 0x1 PUSH1 0x1 PUSH1 0x80 SHL SUB DUP2 AND DUP2 EQ PUSH2 0x376 JUMPI PUSH1 0x0 DUP1 REVERT JUMPDEST DUP1 MLOAD PUSH3 0xFFFFFF DUP2 AND DUP2 EQ PUSH2 0x376 JUMPI PUSH1 0x0 DUP1 REVERT JUMPDEST PUSH1 0x0 DUP1 PUSH1 0x0 DUP1 PUSH1 0x0 PUSH1 0x80 DUP7 DUP9 SUB SLT ISZERO PUSH2 0x3CE JUMPI DUP1 DUP2 REVERT JUMPDEST DUP6 CALLDATALOAD PUSH2 0x3D9 DUP2 PUSH2 0x5BE JUMP JUMPDEST SWAP5 POP PUSH1 0x20 DUP7 ADD CALLDATALOAD PUSH2 0x3E9 DUP2 PUSH2 0x5BE JUMP JUMPDEST SWAP4 POP PUSH1 0x40 DUP7 ADD CALLDATALOAD SWAP3 POP PUSH1 0x60 DUP7 ADD CALLDATALOAD PUSH8 0xFFFFFFFFFFFFFFFF DUP1 DUP3 GT ISZERO PUSH2 0x40C JUMPI DUP3 DUP4 REVERT JUMPDEST DUP2 DUP9 ADD SWAP2 POP DUP9 PUSH1 0x1F DUP4 ADD SLT PUSH2 0x41F JUMPI DUP3 DUP4 REVERT JUMPDEST DUP2 CALLDATALOAD DUP2 DUP2 GT ISZERO PUSH2 0x42D JUMPI DUP4 DUP5 REVERT JUMPDEST DUP10 PUSH1 0x20 DUP3 DUP6 ADD ADD GT ISZERO PUSH2 0x43E JUMPI DUP4 DUP5 REVERT JUMPDEST SWAP7 SWAP10 SWAP6 SWAP9 POP SWAP4 SWAP7 POP PUSH1 0x20 ADD SWAP5 SWAP4 SWAP3 POP POP POP JUMP JUMPDEST PUSH1 0x0 PUSH1 0x20 DUP3 DUP5 SUB SLT ISZERO PUSH2 0x462 JUMPI DUP1 DUP2 REVERT JUMPDEST POP CALLDATALOAD SWAP2 SWAP1 POP JUMP JUMPDEST PUSH1 0x0 DUP1 PUSH1 0x0 DUP1 PUSH1 0x0 DUP1 PUSH1 0x0 DUP1 PUSH1 0x0 DUP1 PUSH1 0x0 DUP1 PUSH2 0x180 DUP14 DUP16 SUB SLT ISZERO PUSH2 0x48B JUMPI DUP7 DUP8 REVERT JUMPDEST DUP13 MLOAD PUSH12 0xFFFFFFFFFFFFFFFFFFFFFFFF DUP2 AND DUP2 EQ PUSH2 0x4A6 JUMPI DUP8 DUP9 REVERT JUMPDEST SWAP12 POP PUSH2 0x4B4 PUSH1 0x20 DUP15 ADD PUSH2 0x36B JUMP JUMPDEST SWAP11 POP PUSH2 0x4C2 PUSH1 0x40 DUP15 ADD PUSH2 0x36B JUMP JUMPDEST SWAP10 POP PUSH2 0x4D0 PUSH1 0x60 DUP15 ADD PUSH2 0x36B JUMP JUMPDEST SWAP9 POP PUSH2 0x4DE PUSH1 0x80 DUP15 ADD PUSH2 0x3A4 JUMP JUMPDEST SWAP8 POP PUSH2 0x4EC PUSH1 0xA0 DUP15 ADD PUSH2 0x37B JUMP JUMPDEST SWAP7 POP PUSH2 0x4FA PUSH1 0xC0 DUP15 ADD PUSH2 0x37B JUMP JUMPDEST SWAP6 POP PUSH2 0x508 PUSH1 0xE0 DUP15 ADD PUSH2 0x38D JUMP JUMPDEST SWAP5 POP PUSH2 0x100 DUP14 ADD MLOAD SWAP4 POP PUSH2 0x120 DUP14 ADD MLOAD SWAP3 POP PUSH2 0x527 PUSH2 0x140 DUP15 ADD PUSH2 0x38D JUMP JUMPDEST SWAP2 POP PUSH2 0x536 PUSH2 0x160 DUP15 ADD PUSH2 0x38D JUMP JUMPDEST SWAP1 POP SWAP3 SWAP6 SWAP9 SWAP12 POP SWAP3 SWAP6 SWAP9 SWAP12 POP SWAP3 SWAP6 SWAP9 SWAP12 JUMP JUMPDEST PUSH1 0x1 PUSH1 0x1 PUSH1 0xA0 SHL SUB SWAP2 SWAP1 SWAP2 AND DUP2 MSTORE PUSH1 0x20 ADD SWAP1 JUMP JUMPDEST PUSH1 0x1 PUSH1 0x1 PUSH1 0xA0 SHL SUB SWAP5 DUP6 AND DUP2 MSTORE PUSH1 0x1 PUSH1 0x1 PUSH1 0x80 SHL SUB SWAP4 SWAP1 SWAP4 AND PUSH1 0x20 DUP5 ADD MSTORE SWAP1 DUP4 AND PUSH1 0x40 DUP4 ADD MSTORE SWAP1 SWAP2 AND PUSH1 0x60 DUP3 ADD MSTORE PUSH1 0x80 ADD SWAP1 JUMP JUMPDEST PUSH1 0x1 PUSH1 0x1 PUSH1 0xE0 SHL SUB NOT SWAP2 SWAP1 SWAP2 AND DUP2 MSTORE PUSH1 0x20 ADD SWAP1 JUMP JUMPDEST PUSH3 0xFFFFFF SWAP2 SWAP1 SWAP2 AND DUP2 MSTORE PUSH1 0x20 ADD SWAP1 JUMP JUMPDEST SWAP1 DUP2 MSTORE PUSH1 0x20 ADD SWAP1 JUMP JUMPDEST PUSH1 0x1 PUSH1 0x1 PUSH1 0xA0 SHL SUB DUP2 AND DUP2 EQ PUSH2 0x5D3 JUMPI PUSH1 0x0 DUP1 REVERT JUMPDEST POP JUMP INVALID LOG2 PUSH5 0x6970667358 0x22 SLT KECCAK256 PUSH7 0x9C5AFB6CB177BA 0xD0 0xD 0xDE PUSH24 0x1EED2690EB838EEFAF7AD996D794BCF4505AC5E864736F6C PUSH4 0x43000706 STOP CALLER "
        },
        "methodIdentifiers": {
          "DAI()": "e0bab4c4",
          "USDC()": "89a30271",
          "deposits(uint256)": "b02c43d0",
          "nonfungiblePositionManager()": "b44a2722",
          "onERC721Received(address,address,uint256,bytes)": "150b7a02",
          "poolFee()": "089fe6aa"
        }
      }
    }
  }
}